{
  "_format": "hh-sol-artifact-1",
  "contractName": "PortfolioGuestbook",
  "sourceName": "contracts/PortfolioGuestbook.sol",
  "abi": [
    {
      "inputs": [],
      "stateMutability": "nonpayable",
      "type": "constructor"
    },
    {
      "anonymous": false,
      "inputs": [
        {
          "indexed": true,
          "internalType": "address",
          "name": "user",
          "type": "address"
        },
        {
          "indexed": false,
          "internalType": "string",
          "name": "name",
          "type": "string"
        },
        {
          "indexed": false,
          "internalType": "string",
          "name": "message",
          "type": "string"
        },
        {
          "indexed": false,
          "internalType": "bool",
          "name": "hasTipped",
          "type": "bool"
        }
      ],
      "name": "NewEntry",
      "type": "event"
    },
    {
      "inputs": [
        {
          "internalType": "uint256",
          "name": "",
          "type": "uint256"
        }
      ],
      "name": "entries",
      "outputs": [
        {
          "internalType": "address",
          "name": "user",
          "type": "address"
        },
        {
          "internalType": "string",
          "name": "name",
          "type": "string"
        },
        {
          "internalType": "string",
          "name": "message",
          "type": "string"
        },
        {
          "internalType": "uint256",
          "name": "timestamp",
          "type": "uint256"
        },
        {
          "internalType": "bool",
          "name": "hasTipped",
          "type": "bool"
        }
      ],
      "stateMutability": "view",
      "type": "function"
    },
    {
      "inputs": [],
      "name": "getEntries",
      "outputs": [
        {
          "components": [
            {
              "internalType": "address",
              "name": "user",
              "type": "address"
            },
            {
              "internalType": "string",
              "name": "name",
              "type": "string"
            },
            {
              "internalType": "string",
              "name": "message",
              "type": "string"
            },
            {
              "internalType": "uint256",
              "name": "timestamp",
              "type": "uint256"
            },
            {
              "internalType": "bool",
              "name": "hasTipped",
              "type": "bool"
            }
          ],
          "internalType": "struct PortfolioGuestbook.Entry[]",
          "name": "",
          "type": "tuple[]"
        }
      ],
      "stateMutability": "view",
      "type": "function"
    },
    {
      "inputs": [],
      "name": "owner",
      "outputs": [
        {
          "internalType": "address payable",
          "name": "",
          "type": "address"
        }
      ],
      "stateMutability": "view",
      "type": "function"
    },
    {
      "inputs": [
        {
          "internalType": "string",
          "name": "_name",
          "type": "string"
        },
        {
          "internalType": "string",
          "name": "_message",
          "type": "string"
        }
      ],
      "name": "signGuestbook",
      "outputs": [],
      "stateMutability": "payable",
      "type": "function"
    }
  ],
  "bytecode": "0x608060405234801561001057600080fd5b5033600160006101000a81548173ffffffffffffffffffffffffffffffffffffffff021916908373ffffffffffffffffffffffffffffffffffffffff16021790555061107a806100616000396000f3fe60806040526004361061003f5760003560e01c80630ffcb0701461004457806317be85c3146100605780638da5cb5b1461008b578063b30906d4146100b6575b600080fd5b61005e60048036038101906100599190610835565b6100f7565b005b34801561006c57600080fd5b50610075610334565b6040516100829190610ae0565b60405180910390f35b34801561009757600080fd5b506100a0610532565b6040516100ad9190610b23565b60405180910390f35b3480156100c257600080fd5b506100dd60048036038101906100d89190610b6a565b610558565b6040516100ee959493929190610c0e565b60405180910390f35b6000803411905060006040518060a001604052803373ffffffffffffffffffffffffffffffffffffffff168152602001858152602001848152602001428152602001831515815250908060018154018082558091505060019003906000526020600020906005020160009091909190915060008201518160000160006101000a81548173ffffffffffffffffffffffffffffffffffffffff021916908373ffffffffffffffffffffffffffffffffffffffff16021790555060208201518160010190816101c49190610e7b565b5060408201518160020190816101da9190610e7b565b506060820151816003015560808201518160040160006101000a81548160ff021916908315150217905550505080156102dd576000600160009054906101000a900473ffffffffffffffffffffffffffffffffffffffff1673ffffffffffffffffffffffffffffffffffffffff163460405161025590610f7e565b60006040518083038185875af1925050503d8060008114610292576040519150601f19603f3d011682016040523d82523d6000602084013e610297565b606091505b50509050806102db576040517f08c379a00000000000000000000000000000000000000000000000000000000081526004016102d290610fdf565b60405180910390fd5b505b3373ffffffffffffffffffffffffffffffffffffffff167fcb4b3b2d304ff2daaecd789a9aba1977bc69cd58f4896f3732edcf963744bc0484848460405161032793929190610fff565b60405180910390a2505050565b60606000805480602002602001604051908101604052809291908181526020016000905b8282101561052957838290600052602060002090600502016040518060a00160405290816000820160009054906101000a900473ffffffffffffffffffffffffffffffffffffffff1673ffffffffffffffffffffffffffffffffffffffff1673ffffffffffffffffffffffffffffffffffffffff1681526020016001820180546103e190610c9e565b80601f016020809104026020016040519081016040528092919081815260200182805461040d90610c9e565b801561045a5780601f1061042f5761010080835404028352916020019161045a565b820191906000526020600020905b81548152906001019060200180831161043d57829003601f168201915b5050505050815260200160028201805461047390610c9e565b80601f016020809104026020016040519081016040528092919081815260200182805461049f90610c9e565b80156104ec5780601f106104c1576101008083540402835291602001916104ec565b820191906000526020600020905b8154815290600101906020018083116104cf57829003601f168201915b50505050508152602001600382015481526020016004820160009054906101000a900460ff16151515158152505081526020019060010190610358565b50505050905090565b600160009054906101000a900473ffffffffffffffffffffffffffffffffffffffff1681565b6000818154811061056857600080fd5b90600052602060002090600502016000915090508060000160009054906101000a900473ffffffffffffffffffffffffffffffffffffffff16908060010180546105b190610c9e565b80601f01602080910402602001604051908101604052809291908181526020018280546105dd90610c9e565b801561062a5780601f106105ff5761010080835404028352916020019161062a565b820191906000526020600020905b81548152906001019060200180831161060d57829003601f168201915b50505050509080600201805461063f90610c9e565b80601f016020809104026020016040519081016040528092919081815260200182805461066b90610c9e565b80156106b85780601f1061068d576101008083540402835291602001916106b8565b820191906000526020600020905b81548152906001019060200180831161069b57829003601f168201915b5050505050908060030154908060040160009054906101000a900460ff16905085565b6000604051905090565b600080fd5b600080fd5b600080fd5b600080fd5b6000601f19601f8301169050919050565b7f4e487b7100000000000000000000000000000000000000000000000000000000600052604160045260246000fd5b610742826106f9565b810181811067ffffffffffffffff821117156107615761076061070a565b5b80604052505050565b60006107746106db565b90506107808282610739565b919050565b600067ffffffffffffffff8211156107a05761079f61070a565b5b6107a9826106f9565b9050602081019050919050565b82818337600083830152505050565b60006107d86107d384610785565b61076a565b9050828152602081018484840111156107f4576107f36106f4565b5b6107ff8482856107b6565b509392505050565b600082601f83011261081c5761081b6106ef565b5b813561082c8482602086016107c5565b91505092915050565b6000806040838503121561084c5761084b6106e5565b5b600083013567ffffffffffffffff81111561086a576108696106ea565b5b61087685828601610807565b925050602083013567ffffffffffffffff811115610897576108966106ea565b5b6108a385828601610807565b9150509250929050565b600081519050919050565b600082825260208201905092915050565b6000819050602082019050919050565b600073ffffffffffffffffffffffffffffffffffffffff82169050919050565b6000610904826108d9565b9050919050565b610914816108f9565b82525050565b600081519050919050565b600082825260208201905092915050565b60005b83811015610954578082015181840152602081019050610939565b60008484015250505050565b600061096b8261091a565b6109758185610925565b9350610985818560208601610936565b61098e816106f9565b840191505092915050565b6000819050919050565b6109ac81610999565b82525050565b60008115159050919050565b6109c7816109b2565b82525050565b600060a0830160008301516109e5600086018261090b565b50602083015184820360208601526109fd8282610960565b91505060408301518482036040860152610a178282610960565b9150506060830151610a2c60608601826109a3565b506080830151610a3f60808601826109be565b508091505092915050565b6000610a5683836109cd565b905092915050565b6000602082019050919050565b6000610a76826108ad565b610a8081856108b8565b935083602082028501610a92856108c9565b8060005b85811015610ace5784840389528151610aaf8582610a4a565b9450610aba83610a5e565b925060208a01995050600181019050610a96565b50829750879550505050505092915050565b60006020820190508181036000830152610afa8184610a6b565b905092915050565b6000610b0d826108d9565b9050919050565b610b1d81610b02565b82525050565b6000602082019050610b386000830184610b14565b92915050565b610b4781610999565b8114610b5257600080fd5b50565b600081359050610b6481610b3e565b92915050565b600060208284031215610b8057610b7f6106e5565b5b6000610b8e84828501610b55565b91505092915050565b610ba0816108f9565b82525050565b600082825260208201905092915050565b6000610bc28261091a565b610bcc8185610ba6565b9350610bdc818560208601610936565b610be5816106f9565b840191505092915050565b610bf981610999565b82525050565b610c08816109b2565b82525050565b600060a082019050610c236000830188610b97565b8181036020830152610c358187610bb7565b90508181036040830152610c498186610bb7565b9050610c586060830185610bf0565b610c656080830184610bff565b9695505050505050565b7f4e487b7100000000000000000000000000000000000000000000000000000000600052602260045260246000fd5b60006002820490506001821680610cb657607f821691505b602082108103610cc957610cc8610c6f565b5b50919050565b60008190508160005260206000209050919050565b60006020601f8301049050919050565b600082821b905092915050565b600060088302610d317fffffffffffffffffffffffffffffffffffffffffffffffffffffffffffffffff82610cf4565b610d3b8683610cf4565b95508019841693508086168417925050509392505050565b6000819050919050565b6000610d78610d73610d6e84610999565b610d53565b610999565b9050919050565b6000819050919050565b610d9283610d5d565b610da6610d9e82610d7f565b848454610d01565b825550505050565b600090565b610dbb610dae565b610dc6818484610d89565b505050565b5b81811015610dea57610ddf600082610db3565b600181019050610dcc565b5050565b601f821115610e2f57610e0081610ccf565b610e0984610ce4565b81016020851015610e18578190505b610e2c610e2485610ce4565b830182610dcb565b50505b505050565b600082821c905092915050565b6000610e5260001984600802610e34565b1980831691505092915050565b6000610e6b8383610e41565b9150826002028217905092915050565b610e848261091a565b67ffffffffffffffff811115610e9d57610e9c61070a565b5b610ea78254610c9e565b610eb2828285610dee565b600060209050601f831160018114610ee55760008415610ed3578287015190505b610edd8582610e5f565b865550610f45565b601f198416610ef386610ccf565b60005b82811015610f1b57848901518255600182019150602085019450602081019050610ef6565b86831015610f385784890151610f34601f891682610e41565b8355505b6001600288020188555050505b505050505050565b600081905092915050565b50565b6000610f68600083610f4d565b9150610f7382610f58565b600082019050919050565b6000610f8982610f5b565b9150819050919050565b7f546970207472616e73666572206661696c65642e000000000000000000000000600082015250565b6000610fc9601483610ba6565b9150610fd482610f93565b602082019050919050565b60006020820190508181036000830152610ff881610fbc565b9050919050565b600060608201905081810360008301526110198186610bb7565b9050818103602083015261102d8185610bb7565b905061103c6040830184610bff565b94935050505056fea264697066735822122080158f6201b8b8eea1912ba7f9c27fa1f6e27e61b87711a188dba1ee0a903f3a64736f6c63430008180033",
  "linkReferences": {},
  "deployedLinkReferences": {}
}